:020000040040BA
:10000000F0244020F5054000F1054000F1054000D6
:10001000F1054000F1054000F1054000000000003E
:10002000000000000000000000000000F10540009A
:10003000F105400000000000F1054000F10540001E
:10004000F1054000F1054000F1054000F1054000D8
:10005000F1054000F1054000F1054000F1054000C8
:10006000F105400000000000190440002D0440008C
:1000700041044000F1054000F1054000F105400059
:100080005504400069044000F1054000F1054000BE
:10009000F1054000F1054000F1054000F105400088
:1000A000F1054000F1054000F1054000F105400078
:1000B000F1054000F1054000F1054000F105400068
:1000C000F1054000F1054000F1054000F105400058
:1000D00000000000F105400000000000F1054000B4
:1000E000F1054000F1054000F1054000F105400038
:1000F000F1054000F1054000F1054000F105400028
:10010000F1054000F1054000F1054000F105400017
:10011000F1054000000000000000000000000000A9
:10012000F1054000F1054000F1054000F1054000F7
:10013000F105400000000000F1054000F10540001D
:1001400010B5054C237833B9044B13B10448AFF311
:1001500000800123237010BD3C04402000000000FB
:100160000C1640000C4B43B10C480D4910B5AFF3D1
:1001700000800C48036823B910BD0A48036833B9EE
:100180007047094B002BF7D0BDE810401847064BCD
:10019000002BF5D0184700BF000000000C164000EF
:1001A000400440200C1640000000000010B510482C
:1001B000104B98473E2100200F4B98470F4CA0470B
:1001C0000028FCD00E4B98470E4A0F4B9A620F4CFA
:1001D000A0470028FCD002200D4B984700200D4B73
:1001E00098470D4B98470248024B984710BD00BFF7
:1001F00000A3E111C9074000190540006D0540004A
:100200007D054000013F182000060E408D0540008E
:100210007D044000B5044000BD0640000163704706
:100220004163704721F00061B1F1405F05D1836BFC
:10023000134214BF012000207047C36BF8E74264EB
:10024000B1F1C05F3AD013D8B1F1006F25D0B1F150
:10025000805F0AD1036F13430367436F416F0B4005
:1002600023EA02034367426070470029FBD17047CD
:10027000B1F1205F21D009D8B1F1005FF3D1036F54
:1002800013430367436F13434367ECE7B1F1405FE8
:1002900013D0B1F1605F10D0E5E710B4016F046FC7
:1002A000D34321401C4619400167436F416F0B4007
:1002B0002340436742605DF8044B7047036F016F52
:1002C0000B4023EA02030367436F13434367CAE704
:1002D000416412F0010F0DD1016612F00A0F0BD02C
:1002E000016212F0020F09D112F0080F08D0C0F815
:1002F000841005E04166F0E74162F2E7C0F8801043
:1003000041610160704710B4019C41644CB90166C1
:100310004BB101654AB94163016101605DF8044B6D
:1003200070474166F4E74165F4E70163F4E70000D4
:1003300070B582B0054616461C46B1F1005F14D078
:100340000AD9B1F1405F24D0B1F1605F21D0B1F1A1
:10035000205F17D000201AE0B1F1805F05D0B1F125
:10036000C05F02D0B1F1006FF4D132462846114B84
:10037000984714F0010F02D12E66012007E06E6647
:10038000012004E01A4631460B4B9847012002B089
:1003900070BD04F001030093C4F38003B1F1605F0A
:1003A00014BF0022012231462846044CA0470120F8
:1003B000EDE700BF3F024000D102400007034000CC
:1003C000C06C7047806C70472DE9F0410446884648
:1003D0000E4B9847054620460D4B9847054013D0D5
:1003E0000C4C04F1600603E0B4420DD010345DB152
:1003F00020684045F8D161682942F5D0E368984704
:10040000636825EA0305EFE7BDE8F081C10340001A
:10041000C50340005804402008B50A210148024B9A
:10042000984708BD000E0E40C903400008B50B21D7
:100430000148024B984708BD00100E40C903400018
:1004400008B50C210148024B984708BD00120E4028
:10045000C903400008B510210148024B984708BD68
:1004600000140E40C903400008B511210148024B99
:10047000984708BD00160E40C9034000032811D05C
:10048000042812D002280CBF4FF480710021084AC2
:10049000136B23F440730B431363936E13F0080F35
:1004A000FBD070474FF44071F1E74FF40071EEE775
:1004B00000060E40174A136B23F0700318431063B5
:1004C000936E13F0080F0AD14FF4805311498A6ECE
:1004D00012F0080F03D1013BF9D1012070470D4AFA
:1004E000136B23F0030343F002031363936E13F0C3
:1004F000080F0AD14FF4805306498A6E12F0080F94
:1005000005D1013BF9D10120704700207047002040
:10051000704700BF00060E40A0B90E48036A0902EA
:1005200089B20D4A1A400D4B13431943016202462A
:10053000936E13F0010FFBD0064A116A084B0B4370
:100540001362704703490B6A064A1A40064B13436D
:100550000B62704700060E40FCFFC8FF0100370029
:1005600000003701FCFFC8FE02003701024B986E05
:1005700000F48030704700BF00060E404FF000527C
:10058000014B9A62704700BF00060E40024B986E06
:1005900000F00200704700BF00060E403F281ED842
:1005A0001F280CD8114B9A6901238340934318D01C
:1005B000012303FA00F00D4B18610020704720382A
:1005C0000A4BD3F808210123834093430BD0012326
:1005D00003FA00F0054BC3F800010020704701202A
:1005E0007047002070470020704700BF00060E4093
:1005F000FEE7000000B583B0254B264A9A4210D092
:10060000254B234A9A420CD2013B9B1A23F0030349
:10061000043313441F4951F8040B42F8040B9A4267
:10062000F9D11E4B1E4A9A420AD2013B9B1A23F073
:10063000030304331344002142F8041B9342FBD10B
:10064000184A194B23F07F039360EFF31083B3FA3A
:1006500083F35B09019372B6BFF35F8F0022134BE4
:100660001A700199124A136843F470031360BFF3C0
:100670004F8FBFF36F8F29B101220C4B1A70BFF35C
:100680005F8F62B60B4B98470B4B9847FEE700BF56
:10069000000040200C1640003C044020EC044020A8
:1006A0003C04402000ED00E0000040000A00402033
:1006B00088ED00E0450D4000FD0940003B4B1B6B01
:1006C00003F00303012B1DD083B1022B36D0374B2F
:1006D0001B6B03F07003702B5FD0344B1A6B3449E3
:1006E000C2F302120B68D3400B607047314B5B6959
:1006F00013F0800F14BF4FF400424FF4FA422C4B1A
:100700001A60E4E7294B1B6A13F0807F03D02A4A62
:10071000274B1A60DBE7294A254B1A60234B1B6ADB
:1007200003F07003102B05D0202BD0D1224A204B90
:100730001A60CCE7224A1E4B1A60C8E71B4B1B6AA3
:1007400013F0807F16D01C4A194B1A60174B1B6B95
:1007500003F00303022BBAD1144A916A926A144837
:10076000C1F30A41036801FB0333D2B2B3FBF2F3D6
:100770000360ACE7114A0E4B1A600C4B1B6A03F086
:100780007003102B05D0202BE0D10B4A084B1A60C8
:10079000DCE70B4A064B1A60D8E7054A136809499B
:1007A000A1FB03135B081360704700BF00060E40F7
:1007B0000C00402010180E40001BB70000093D003F
:1007C00000127A00ABAAAAAA124B984211D9124B76
:1007D000984213D9114B984214D9114B984215D90C
:1007E000104B984294BF4FF004220F4A0F4B1A60EF
:1007F00070474FF080620D4B1A6070470C4A0B4BEC
:100800001A6070470B4A094B1A6070470A4A074B37
:100810001A607047FF2C3101FF596202FF86930373
:10082000FFB3C404FFE0F50500050004000C0E4012
:1008300000010004000200040003000410B582B0AF
:100840000D4B98474FF400420C4B5A600A200C4C59
:10085000A0470C20A04700234FF480724FF0405176
:100860000848094CA047002200921346012107487E
:10087000074CA04702B010BDAD01400050180E401B
:100880009D05400000120E4031034000000E0E4056
:10089000070340002DE9F04F85B082460D4614460F
:1008A00003924948494B9847002C40F389802B1FFD
:1008B0000293AAF1040A4FF0000B454D52E0332099
:1008C000424FB84701212846B0474FF48071414854
:1008D000414B98473320B84701344C4519D04FF469
:1008E00080713C48B047012128463B4B984708F1AE
:1008F0000103022BE3D90198344FB8470121284660
:10090000B0474FF480713348334B98470198B8474C
:10091000E2E74FF400624FF0205128462F4B9847F2
:10092000C0B92948294B98474FF400624FF0205135
:1009300028462A4B9847002842D04FF40066274C9F
:1009400032464FF020512846A0470128F8D01E48D3
:100950001E4B984722481D4B98470BF1010B039BF8
:100960005B452DD0029A52F8043F02921D4A92FB39
:10097000F3F85AF8043F4FF47A7707FB03F797FB35
:10098000F8F9B9F1000FC4DD4046B8F1000FB8BF67
:1009900008F101004010C3171349A0FB0101124CDC
:1009A00004FB0311114A0023114E002736184F4152
:1009B000304639460F4CA047019000240E4E8EE77A
:1009C00005B0BDE8F08F00BFB6D78101010040201F
:1009D000000E0E4000120E401D0240002502400095
:1009E000D828320040420F0000A3E111E0835A00F2
:1009F000DF835A00350A40002102400070B5074BE2
:100A00009847074E074D084C1A2231462846A04702
:100A1000CB2206490648A047F6E700BF3D08400044
:100A2000741540000C15400095084000E01140008E
:100A3000B40E400053B94AB9002908BF00281CBFB2
:100A40004FF0FF314FF0FF3000F07AB9ADF1080CF4
:100A50006DE904CE00F006F8DDF804E0DDE90223DC
:100A600004B070472DE9F0478C460D460446089EB9
:100A7000002B51D18A4217466DD9B2FA82FEBEF1DF
:100A8000000F0BD0CEF1200C01FA0EF520FA0CFC71
:100A900002FA0EF74CEA050C00FA0EF44FEA174A78
:100AA000250CBCFBFAF81FFA87F90AFB18CC45EABB
:100AB0000C4508FB09F3AB420AD9ED1908F1FF32E6
:100AC00080F02381AB4240F22081A8F102083D442E
:100AD000ED1AA4B2B5FBFAF00AFB105544EA05443E
:100AE00000FB09F9A14509D9E41900F1FF3380F0B1
:100AF0000A81A14540F2078102383C44A4EB090475
:100B000040EA08400021002E61D024FA0EF40023B0
:100B100034607360BDE8F0878B4207D9002E54D053
:100B2000002186E821000846BDE8F087B3FA83F18A
:100B3000002940F08E80AB4202D3824200F2FA805C
:100B4000841A65EB03050120AC46002E3FD086E8F1
:100B50001010BDE8F08712B90127B7FBF2F7B7FA1A
:100B600087FEBEF1000F34D1EB1B3A0C1FFA87FC55
:100B70000121B3FBF2F8250C02FB183345EA0345CB
:100B80000CFB08F3AB4207D9ED1908F1FF3002D294
:100B9000AB4200F2D1808046ED1AA3B2B5FBF2F071
:100BA00002FB105543EA05440CFB00FCA44507D9A1
:100BB000E41900F1FF3302D2A44500F2B8801846D0
:100BC000A4EB0C0440EA08409DE731463046BDE8FE
:100BD000F087CEF1200405FA0EF307FA0EF720FA9B
:100BE00004F83A0C25FA04F448EA0308B4FBF2F1DD
:100BF0004FEA184502FB11441FFA87FC45EA0445F9
:100C000001FB0CF3AB4200FA0EF409D9ED1901F126
:100C1000FF3080F08A80AB4240F2878002393D4449
:100C2000EB1A1FFA88F5B3FBF2F002FB103345EA2A
:100C3000034500FB0CF3AB4207D9ED1900F1FF3877
:100C40006FD2AB426DD902383D44EB1A40EA014104
:100C50008FE7C1F1200722FA07F88B4005FA01F46B
:100C600048EA030320FA07FE4FEA134CFD404EEA20
:100C7000040EB5FBFCF94FEA1E440CFB19551FFA94
:100C800083F844EA054509FB08F4AC4202FA01F294
:100C900000FA01FA08D9ED1809F1FF3043D2AC424D
:100CA00041D9A9F102091D442D1B1FFA8EFEB5FB87
:100CB000FCF00CFB10554EEA054400FB08F8A0457B
:100CC00007D9E41800F1FF3529D2A04527D9023809
:100CD0001C4440EA0940A4EB0804A0FB02894C45EF
:100CE000C6464D4615D312D056B1BAEB0E0364EB8F
:100CF000050404FA07F7CB401F43CC40376074600B
:100D00000021BDE8F0871846F8E69046E0E6C245C7
:100D1000EAD2B8EB020E69EB03050138E4E7284696
:100D2000D7E7404691E78146BEE7014678E70238BB
:100D30003C4445E7084608E7A8F102083D442BE794
:100D4000704700BF70B50F4E0F4D761BB61018BF21
:100D5000002405D0013455F8043B9847A642F9D148
:100D60000A4E0B4D761B00F03BFCB61018BF00245A
:100D700006D0013455F8043B9847A642F9D170BD1E
:100D800070BD00BFEC154000EC154000F4154000AC
:100D9000EC154000024B13B1024800F005B8704753
:100DA00000000000B50D4000002301461A46184619
:100DB00000F01EB838B50A4C0A4D641BA4100AD0C6
:100DC00004F18043013B05EB8305013C55F80439F0
:100DD0009847002CF9D1BDE8384000F00BBC00BFAB
:100DE0000416400000164000704700BF704700BF67
:100DF0002DE9F8432C4D0646286898460F46914643
:100E0000FFF7F2FF294B1C68D4F84831002B3ED085
:100E10005A681F2A1CDC02F1010E76B103EB820135
:100E20000124C1F88890D3F8880194402043022E11
:100E3000C3F88801C1F8088123D00232C3F804E066
:100E4000286843F82270FFF7D1FF0020BDE8F8833F
:100E5000174B0BB34FF4C870AFF300800346D8B103
:100E6000D4F848210260002141600A46C4F84801D4
:100E70004FF0010EC0F88811C0F88C11002EDCD0A4
:100E8000CCE7D3F88C110C43C3F88C41D5E704F5BB
:100E9000A673C4F84831BBE72868FFF7A7FF4FF0F7
:100EA000FF30BDE8F88300BF38044020DC15400067
:100EB000000000007D0000007D000000FA0000003E
:100EC0007D0000007D0000007D0000007D0000002E
:100ED000FA0000007D0000007D0000007D000000A1
:100EE0007D000000FA0000007D0000007D00000091
:100EF0007D0000007D000000770100007D00000003
:100F00007D0000007D000000FA0000007D00000070
:100F10007D0000007D0000007D000000FA00000060
:100F20007D0000007D0000007D0000007D000000CD
:100F3000FA0000007D0000007D0000007D00000040
:100F40007D000000770100007D0000007D000000B2
:100F50007D000000FA0000007D0000007D00000020
:100F60007D0000007D000000FA0000007D00000010
:100F70007D0000007D0000007D000000FA00000000
:100F80007D0000007D0000007D0000007D0000006D
:100F90007D000000FA0000007D0000007D000000E0
:100FA0007D000000FA0000007D0000007D000000D0
:100FB000FA0000007D000000FA0000007D00000043
:100FC0007D0000007D000000FA0000007D000000B0
:100FD0007D0000007D0000007D0000007701000022
:100FE00077010000FA0000007D0000007D00000095
:100FF0007D000000FA0000007D0000007D00000080
:101000007D0000007D000000FA0000007D0000006F
:101010007D0000007D0000007D00000077010000E1
:101020007D0000007D0000007D000000FA0000004F
:101030007D0000007D0000007D0000007D000000BC
:10104000FA0000007D0000007D0000007D0000002F
:101050007D000000FA0000007D0000007D0000001F
:101060007D0000007D000000770100007D00000091
:101070007D0000007D000000FA0000007D000000FF
:101080007D0000007D0000007D000000FA000000EF
:101090007D0000007D0000007D0000007D0000005C
:1010A000FA0000007D0000007D0000007D000000CF
:1010B0007D0000007D000000FA0000007D000000BF
:1010C0007D0000007D000000FA0000007D000000AF
:1010D0007D000000FA0000007D000000FA00000022
:1010E0007D0000007D0000007D000000FA0000008F
:1010F0007D0000007D0000007D0000007D000000FC
:101100007701000077010000FA0000007D00000078
:1011100077010000FA0000007D0000007701000068
:101120007D0000007D0000007D0000007D000000CB
:101130007D0000007D0000007D0000007D000000BB
:1011400077010000FA0000007D0000007701000038
:10115000FA0000007D000000770100007D00000023
:101160007D0000007D0000007D0000007D0000008B
:10117000F4010000FA0000007D000000770100008B
:10118000FA0000007D000000770100007D000000F3
:101190007D0000007D0000007D0000007D0000005B
:1011A0007D0000007D0000007D0000007701000050
:1011B000FA0000007D00000077010000FA00000046
:1011C0007D000000770100007D0000007D00000030
:1011D0007D0000007D0000007D000000F4010000A3
:1011E0004A01000088010000B8010000B8010000B9
:1011F00000000000B8010000EE0100000B0200003A
:101200000B020000000000000B0200004B02000077
:10121000EE010000EE01000000000000B801000037
:1012200088010000B8010000000000004A01000031
:1012300088010000B8010000B801000000000000B3
:10124000B8010000EE0100000B0200000B020000DC
:10125000000000000B0200004B020000EE01000045
:10126000EE01000000000000B8010000880100004D
:10127000B8010000000000004A01000088010000E1
:10128000B8010000B801000000000000B801000033
:101290000B0200004B0200004B02000000000000A7
:1012A0004B02000093020000BA020000BA020000E4
:1012B00000000000930200004B02000093020000B7
:1012C000B801000000000000B8010000EE010000BD
:1012D0000B0200000B020000000000004B020000A7
:1012E00093020000B801000000000000B8010000F7
:1012F0000B020000EE010000EE0100000000000003
:101300000B020000B8010000EE0100000000000028
:10131000B8010000B8010000B8010000EE010000B3
:101320000B0200000B020000000000000B02000096
:101330004B020000EE010000EE0100000000000082
:10134000B801000088010000B801000000000000A2
:101350004A01000088010000B8010000B801000047
:1013600000000000B8010000EE0100000B020000C8
:101370000B020000000000000B0200004B02000006
:10138000EE010000EE01000000000000B8010000C6
:1013900088010000B8010000000000004A010000C0
:1013A00088010000B8010000B80100000000000042
:1013B000B80100000B0200004B0200004B020000CD
:1013C000000000004B02000093020000BA0200007F
:1013D000BA02000000000000930200004B0200006F
:1013E00093020000B801000000000000B8010000F6
:1013F000EE0100000B0200000B02000000000000E4
:101400004B02000093020000B80100000000000041
:10141000B80100000B020000EE010000EE01000028
:10142000000000000B020000B8010000EE01000007
:101430000000000093020000000000000000000017
:10144000BA0200000000000000000000930200004B
:1014500093020000000000001003000000000000E4
:10146000930200004B02000000000000000000009A
:101470004B02000000000000000000000B02000012
:101480000000000000000000EE0100000B02000060
:1014900000000000EE01000000000000B8010000A4
:1014A000930200000000000000000000BA020000EB
:1014B0000000000000000000930200009302000002
:1014C0000000000010030000000000009302000074
:1014D0004B02000000000000000000004B02000072
:1014E00000000000000000000B02000000000000EF
:1014F00000000000EE0100000B02000000000000F0
:10150000EE01000000000000B80100007D000000B6
:101510007D000000FA000000FA000000FA00000060
:10152000F40100007D0000007D000000FA000000D2
:10153000FA000000FA000000F40100007D00000045
:101540007D000000FA000000FA000000FA00000030
:10155000FA000000FA0000007D0000007D0000009D
:10156000FA000000FA000000FA000000F401000098
:10157000FA0000008801000088010000B8010000A6
:10158000880100000B020000EE010000880100004D
:1015900088010000B8010000880100004B02000033
:1015A0000B02000088010000880100001003000009
:1015B000930200000B020000EE010000B8010000E1
:1015C000BA020000BA020000930200000B02000001
:1015D0004B0200000B020000000000001000402041
:1015E000F8B500BFF8BC08BC9E467047950D40009A
:1015F00065014000F8B500BFF8BC08BC9E467047C6
:041600004101400064
:0816040060F4FF7F010000000B
:10160C00BFF35F8F0138FBD17047010000093D002B
:10161C0000000000FC02402064034020CC0340206A
:10162C0000000000000000000000000000000000AE
:10163C00000000000000000000000000000000009E
:10164C00000000000000000000000000000000008E
:10165C00000000000000000000000000000000007E
:10166C00000000000000000000000000000000006E
:10167C00000000000000000000000000000000005E
:10168C00000000000000000000000000000000004E
:10169C00000000000000000000000000000000003E
:1016AC00000000000000000000000000000000002E
:1016BC00000000000000000001000000000000001D
:1016CC000E33CDAB34126DE6ECDE05000B000000E2
:1016DC0000000000000000000000000000000000FE
:1016EC0000000000000000000000000000000000EE
:1016FC0000000000000000000000000000000000DE
:10170C0000000000000000000000000000000000CD
:0C1A3C000000000000000000C804402072
:04000005004005F5BD
:00000001FF
